{
  "_format": "hh-sol-artifact-1",
  "contractName": "GovernanceVoting",
  "sourceName": "contracts/GovernanceVoting.sol",
  "abi": [
    {
      "inputs": [
        {
          "internalType": "address",
          "name": "_token",
          "type": "address"
        }
      ],
      "stateMutability": "nonpayable",
      "type": "constructor"
    },
    {
      "anonymous": false,
      "inputs": [
        {
          "indexed": true,
          "internalType": "uint256",
          "name": "id",
          "type": "uint256"
        },
        {
          "indexed": false,
          "internalType": "string",
          "name": "description",
          "type": "string"
        }
      ],
      "name": "ProposalCreated",
      "type": "event"
    },
    {
      "anonymous": false,
      "inputs": [
        {
          "indexed": true,
          "internalType": "uint256",
          "name": "proposalId",
          "type": "uint256"
        }
      ],
      "name": "ProposalExecuted",
      "type": "event"
    },
    {
      "anonymous": false,
      "inputs": [
        {
          "indexed": true,
          "internalType": "uint256",
          "name": "proposalId",
          "type": "uint256"
        },
        {
          "indexed": false,
          "internalType": "bytes",
          "name": "data",
          "type": "bytes"
        }
      ],
      "name": "ProposalPassed",
      "type": "event"
    },
    {
      "anonymous": false,
      "inputs": [
        {
          "indexed": true,
          "internalType": "uint256",
          "name": "proposalId",
          "type": "uint256"
        },
        {
          "indexed": true,
          "internalType": "address",
          "name": "voter",
          "type": "address"
        },
        {
          "indexed": false,
          "internalType": "uint256",
          "name": "weight",
          "type": "uint256"
        }
      ],
      "name": "VoteCast",
      "type": "event"
    },
    {
      "inputs": [],
      "name": "PROPOSAL_THRESHOLD",
      "outputs": [
        {
          "internalType": "uint256",
          "name": "",
          "type": "uint256"
        }
      ],
      "stateMutability": "view",
      "type": "function"
    },
    {
      "inputs": [],
      "name": "VOTING_PERIOD",
      "outputs": [
        {
          "internalType": "uint256",
          "name": "",
          "type": "uint256"
        }
      ],
      "stateMutability": "view",
      "type": "function"
    },
    {
      "inputs": [
        {
          "internalType": "string",
          "name": "description",
          "type": "string"
        }
      ],
      "name": "createProposal",
      "outputs": [
        {
          "internalType": "uint256",
          "name": "",
          "type": "uint256"
        }
      ],
      "stateMutability": "nonpayable",
      "type": "function"
    },
    {
      "inputs": [
        {
          "internalType": "uint256",
          "name": "proposalId",
          "type": "uint256"
        }
      ],
      "name": "executeProposal",
      "outputs": [],
      "stateMutability": "nonpayable",
      "type": "function"
    },
    {
      "inputs": [
        {
          "internalType": "uint256",
          "name": "proposalId",
          "type": "uint256"
        }
      ],
      "name": "getProposal",
      "outputs": [
        {
          "components": [
            {
              "internalType": "uint256",
              "name": "id",
              "type": "uint256"
            },
            {
              "internalType": "string",
              "name": "description",
              "type": "string"
            },
            {
              "internalType": "uint256",
              "name": "voteCount",
              "type": "uint256"
            },
            {
              "internalType": "bool",
              "name": "executed",
              "type": "bool"
            },
            {
              "internalType": "uint256",
              "name": "createdAt",
              "type": "uint256"
            }
          ],
          "internalType": "struct GovernanceVoting.Proposal",
          "name": "",
          "type": "tuple"
        }
      ],
      "stateMutability": "view",
      "type": "function"
    },
    {
      "inputs": [
        {
          "internalType": "uint256",
          "name": "",
          "type": "uint256"
        },
        {
          "internalType": "address",
          "name": "",
          "type": "address"
        }
      ],
      "name": "hasVoted",
      "outputs": [
        {
          "internalType": "bool",
          "name": "",
          "type": "bool"
        }
      ],
      "stateMutability": "view",
      "type": "function"
    },
    {
      "inputs": [],
      "name": "proposalCount",
      "outputs": [
        {
          "internalType": "uint256",
          "name": "",
          "type": "uint256"
        }
      ],
      "stateMutability": "view",
      "type": "function"
    },
    {
      "inputs": [
        {
          "internalType": "uint256",
          "name": "",
          "type": "uint256"
        }
      ],
      "name": "proposals",
      "outputs": [
        {
          "internalType": "uint256",
          "name": "id",
          "type": "uint256"
        },
        {
          "internalType": "string",
          "name": "description",
          "type": "string"
        },
        {
          "internalType": "uint256",
          "name": "voteCount",
          "type": "uint256"
        },
        {
          "internalType": "bool",
          "name": "executed",
          "type": "bool"
        },
        {
          "internalType": "uint256",
          "name": "createdAt",
          "type": "uint256"
        }
      ],
      "stateMutability": "view",
      "type": "function"
    },
    {
      "inputs": [],
      "name": "token",
      "outputs": [
        {
          "internalType": "contract WrappedVaultToken",
          "name": "",
          "type": "address"
        }
      ],
      "stateMutability": "view",
      "type": "function"
    },
    {
      "inputs": [
        {
          "internalType": "uint256",
          "name": "proposalId",
          "type": "uint256"
        }
      ],
      "name": "vote",
      "outputs": [],
      "stateMutability": "nonpayable",
      "type": "function"
    }
  ],
  "bytecode": "0x60806040523480156200001157600080fd5b5060405162001a5b38038062001a5b8339818101604052810190620000379190620000e8565b806000806101000a81548173ffffffffffffffffffffffffffffffffffffffff021916908373ffffffffffffffffffffffffffffffffffffffff160217905550506200011a565b600080fd5b600073ffffffffffffffffffffffffffffffffffffffff82169050919050565b6000620000b08262000083565b9050919050565b620000c281620000a3565b8114620000ce57600080fd5b50565b600081519050620000e281620000b7565b92915050565b6000602082840312156200010157620001006200007e565b5b60006200011184828501620000d1565b91505092915050565b611931806200012a6000396000f3fe608060405234801561001057600080fd5b506004361061009e5760003560e01c8063a6c2660311610066578063a6c266031461016f578063b1610d7e1461018d578063c7f758a8146101ab578063da35c664146101db578063fc0c546a146101f95761009e565b80630121b93f146100a3578063013cf08b146100bf5780630d61b519146100f3578063438596321461010f57806349c2a1a61461013f575b600080fd5b6100bd60048036038101906100b89190610be4565b610217565b005b6100d960048036038101906100d49190610be4565b610565565b6040516100ea959493929190610ccb565b60405180910390f35b61010d60048036038101906101089190610be4565b610630565b005b61012960048036038101906101249190610d83565b6107e3565b6040516101369190610dc3565b60405180910390f35b61015960048036038101906101549190610f13565b610812565b6040516101669190610f5c565b60405180910390f35b6101776109e4565b6040516101849190610f5c565b60405180910390f35b6101956109f1565b6040516101a29190610f5c565b60405180910390f35b6101c560048036038101906101c09190610be4565b6109f6565b6040516101d29190611055565b60405180910390f35b6101e3610b3f565b6040516101f09190610f5c565b60405180910390f35b610201610b45565b60405161020e91906110d6565b60405180910390f35b60008111801561022957506003548111155b610268576040517f08c379a000000000000000000000000000000000000000000000000000000000815260040161025f9061113d565b60405180910390fd5b6002600082815260200190815260200160002060003373ffffffffffffffffffffffffffffffffffffffff1673ffffffffffffffffffffffffffffffffffffffff16815260200190815260200160002060009054906101000a900460ff1615610306576040517f08c379a00000000000000000000000000000000000000000000000000000000081526004016102fd906111a9565b60405180910390fd5b60008060009054906101000a900473ffffffffffffffffffffffffffffffffffffffff1673ffffffffffffffffffffffffffffffffffffffff166370a08231336040518263ffffffff1660e01b815260040161036291906111d8565b602060405180830381865afa15801561037f573d6000803e3d6000fd5b505050506040513d601f19601f820116820180604052508101906103a39190611208565b9050600081116103e8576040517f08c379a00000000000000000000000000000000000000000000000000000000081526004016103df90611281565b60405180910390fd5b60006001600084815260200190815260200160002090506003816004015461041091906112d0565b431115610452576040517f08c379a000000000000000000000000000000000000000000000000000000000815260040161044990611350565b60405180910390fd5b60016002600085815260200190815260200160002060003373ffffffffffffffffffffffffffffffffffffffff1673ffffffffffffffffffffffffffffffffffffffff16815260200190815260200160002060006101000a81548160ff021916908315150217905550818160020160008282546104cf91906112d0565b925050819055503373ffffffffffffffffffffffffffffffffffffffff16837f2acce567deca3aabf56327adbb4524bd5318936eaefa69e3a5208ffda0cfec098460405161051d9190610f5c565b60405180910390a3683635c9adc5dea0000081600201541015801561055157508060030160009054906101000a900460ff16155b156105605761055f83610630565b5b505050565b600160205280600052604060002060009150905080600001549080600101805461058e9061139f565b80601f01602080910402602001604051908101604052809291908181526020018280546105ba9061139f565b80156106075780601f106105dc57610100808354040283529160200191610607565b820191906000526020600020905b8154815290600101906020018083116105ea57829003601f168201915b5050505050908060020154908060030160009054906101000a900460ff16908060040154905085565b60008111801561064257506003548111155b610681576040517f08c379a00000000000000000000000000000000000000000000000000000000081526004016106789061113d565b60405180910390fd5b60006001600083815260200190815260200160002090508060030160009054906101000a900460ff16156106ea576040517f08c379a00000000000000000000000000000000000000000000000000000000081526004016106e19061141c565b60405180910390fd5b683635c9adc5dea000008160020154101561073a576040517f08c379a000000000000000000000000000000000000000000000000000000000815260040161073190611488565b60405180910390fd5b60018160030160006101000a81548160ff0219169083151502179055506000604051602001610768906114f4565b6040516020818303038152906040529050827f776b7aa644ed5d6871130e519e32d05cce6f3b7246f0dd27854600563e47b680826040516107a99190611569565b60405180910390a2827f712ae1383f79ac853f8d882153778e0260ef8f03b504e2866e0593e04d2b291f60405160405180910390a2505050565b60026020528160005260406000206020528060005260406000206000915091509054906101000a900460ff1681565b60008060008054906101000a900473ffffffffffffffffffffffffffffffffffffffff1673ffffffffffffffffffffffffffffffffffffffff166370a08231336040518263ffffffff1660e01b815260040161086e91906111d8565b602060405180830381865afa15801561088b573d6000803e3d6000fd5b505050506040513d601f19601f820116820180604052508101906108af9190611208565b116108ef576040517f08c379a00000000000000000000000000000000000000000000000000000000081526004016108e6906115fd565b60405180910390fd5b600360008154809291906109029061161d565b91905055506040518060a00160405280600354815260200183815260200160008152602001600015158152602001438152506001600060035481526020019081526020016000206000820151816000015560208201518160010190816109689190611807565b506040820151816002015560608201518160030160006101000a81548160ff021916908315150217905550608082015181600401559050506003547f9c770c289ab5bf7e57cb1d23c8ceae993aea46eb64847072fd3d78ca60d3e432836040516109d291906118d9565b60405180910390a26003549050919050565b683635c9adc5dea0000081565b600381565b6109fe610b69565b600082118015610a1057506003548211155b610a4f576040517f08c379a0000000000000000000000000000000000000000000000000000000008152600401610a469061113d565b60405180910390fd5b600160008381526020019081526020016000206040518060a001604052908160008201548152602001600182018054610a879061139f565b80601f0160208091040260200160405190810160405280929190818152602001828054610ab39061139f565b8015610b005780601f10610ad557610100808354040283529160200191610b00565b820191906000526020600020905b815481529060010190602001808311610ae357829003601f168201915b50505050508152602001600282015481526020016003820160009054906101000a900460ff161515151581526020016004820154815250509050919050565b60035481565b60008054906101000a900473ffffffffffffffffffffffffffffffffffffffff1681565b6040518060a00160405280600081526020016060815260200160008152602001600015158152602001600081525090565b6000604051905090565b600080fd5b600080fd5b6000819050919050565b610bc181610bae565b8114610bcc57600080fd5b50565b600081359050610bde81610bb8565b92915050565b600060208284031215610bfa57610bf9610ba4565b5b6000610c0884828501610bcf565b91505092915050565b610c1a81610bae565b82525050565b600081519050919050565b600082825260208201905092915050565b60005b83811015610c5a578082015181840152602081019050610c3f565b60008484015250505050565b6000601f19601f8301169050919050565b6000610c8282610c20565b610c8c8185610c2b565b9350610c9c818560208601610c3c565b610ca581610c66565b840191505092915050565b60008115159050919050565b610cc581610cb0565b82525050565b600060a082019050610ce06000830188610c11565b8181036020830152610cf28187610c77565b9050610d016040830186610c11565b610d0e6060830185610cbc565b610d1b6080830184610c11565b9695505050505050565b600073ffffffffffffffffffffffffffffffffffffffff82169050919050565b6000610d5082610d25565b9050919050565b610d6081610d45565b8114610d6b57600080fd5b50565b600081359050610d7d81610d57565b92915050565b60008060408385031215610d9a57610d99610ba4565b5b6000610da885828601610bcf565b9250506020610db985828601610d6e565b9150509250929050565b6000602082019050610dd86000830184610cbc565b92915050565b600080fd5b600080fd5b7f4e487b7100000000000000000000000000000000000000000000000000000000600052604160045260246000fd5b610e2082610c66565b810181811067ffffffffffffffff82111715610e3f57610e3e610de8565b5b80604052505050565b6000610e52610b9a565b9050610e5e8282610e17565b919050565b600067ffffffffffffffff821115610e7e57610e7d610de8565b5b610e8782610c66565b9050602081019050919050565b82818337600083830152505050565b6000610eb6610eb184610e63565b610e48565b905082815260208101848484011115610ed257610ed1610de3565b5b610edd848285610e94565b509392505050565b600082601f830112610efa57610ef9610dde565b5b8135610f0a848260208601610ea3565b91505092915050565b600060208284031215610f2957610f28610ba4565b5b600082013567ffffffffffffffff811115610f4757610f46610ba9565b5b610f5384828501610ee5565b91505092915050565b6000602082019050610f716000830184610c11565b92915050565b610f8081610bae565b82525050565b600082825260208201905092915050565b6000610fa282610c20565b610fac8185610f86565b9350610fbc818560208601610c3c565b610fc581610c66565b840191505092915050565b610fd981610cb0565b82525050565b600060a083016000830151610ff76000860182610f77565b506020830151848203602086015261100f8282610f97565b91505060408301516110246040860182610f77565b5060608301516110376060860182610fd0565b50608083015161104a6080860182610f77565b508091505092915050565b6000602082019050818103600083015261106f8184610fdf565b905092915050565b6000819050919050565b600061109c61109761109284610d25565b611077565b610d25565b9050919050565b60006110ae82611081565b9050919050565b60006110c0826110a3565b9050919050565b6110d0816110b5565b82525050565b60006020820190506110eb60008301846110c7565b92915050565b7f496e76616c69642070726f706f73616c00000000000000000000000000000000600082015250565b6000611127601083610c2b565b9150611132826110f1565b602082019050919050565b600060208201905081810360008301526111568161111a565b9050919050565b7f416c726561647920766f74656400000000000000000000000000000000000000600082015250565b6000611193600d83610c2b565b915061119e8261115d565b602082019050919050565b600060208201905081810360008301526111c281611186565b9050919050565b6111d281610d45565b82525050565b60006020820190506111ed60008301846111c9565b92915050565b60008151905061120281610bb8565b92915050565b60006020828403121561121e5761121d610ba4565b5b600061122c848285016111f3565b91505092915050565b7f4d75737420686f6c6420746f6b656e7320746f20766f74650000000000000000600082015250565b600061126b601883610c2b565b915061127682611235565b602082019050919050565b6000602082019050818103600083015261129a8161125e565b9050919050565b7f4e487b7100000000000000000000000000000000000000000000000000000000600052601160045260246000fd5b60006112db82610bae565b91506112e683610bae565b92508282019050808211156112fe576112fd6112a1565b5b92915050565b7f566f74696e6720706572696f6420656e64656400000000000000000000000000600082015250565b600061133a601383610c2b565b915061134582611304565b602082019050919050565b600060208201905081810360008301526113698161132d565b9050919050565b7f4e487b7100000000000000000000000000000000000000000000000000000000600052602260045260246000fd5b600060028204905060018216806113b757607f821691505b6020821081036113ca576113c9611370565b5b50919050565b7f416c726561647920657865637574656400000000000000000000000000000000600082015250565b6000611406601083610c2b565b9150611411826113d0565b602082019050919050565b60006020820190508181036000830152611435816113f9565b9050919050565b7f496e73756666696369656e7420766f7465730000000000000000000000000000600082015250565b6000611472601283610c2b565b915061147d8261143c565b602082019050919050565b600060208201905081810360008301526114a181611465565b9050919050565b7f50415553455f4252494447450000000000000000000000000000000000000000600082015250565b60006114de600c83610c2b565b91506114e9826114a8565b602082019050919050565b6000602082019050818103600083015261150d816114d1565b9050919050565b600081519050919050565b600082825260208201905092915050565b600061153b82611514565b611545818561151f565b9350611555818560208601610c3c565b61155e81610c66565b840191505092915050565b600060208201905081810360008301526115838184611530565b905092915050565b7f4d75737420686f6c6420746f6b656e7320746f206372656174652070726f706f60008201527f73616c0000000000000000000000000000000000000000000000000000000000602082015250565b60006115e7602383610c2b565b91506115f28261158b565b604082019050919050565b60006020820190508181036000830152611616816115da565b9050919050565b600061162882610bae565b91507fffffffffffffffffffffffffffffffffffffffffffffffffffffffffffffffff820361165a576116596112a1565b5b600182019050919050565b60008190508160005260206000209050919050565b60006020601f8301049050919050565b600082821b905092915050565b6000600883026116c77fffffffffffffffffffffffffffffffffffffffffffffffffffffffffffffffff8261168a565b6116d1868361168a565b95508019841693508086168417925050509392505050565b60006117046116ff6116fa84610bae565b611077565b610bae565b9050919050565b6000819050919050565b61171e836116e9565b61173261172a8261170b565b848454611697565b825550505050565b600090565b61174761173a565b611752818484611715565b505050565b5b818110156117765761176b60008261173f565b600181019050611758565b5050565b601f8211156117bb5761178c81611665565b6117958461167a565b810160208510156117a4578190505b6117b86117b08561167a565b830182611757565b50505b505050565b600082821c905092915050565b60006117de600019846008026117c0565b1980831691505092915050565b60006117f783836117cd565b9150826002028217905092915050565b61181082610c20565b67ffffffffffffffff81111561182957611828610de8565b5b611833825461139f565b61183e82828561177a565b600060209050601f831160018114611871576000841561185f578287015190505b61186985826117eb565b8655506118d1565b601f19841661187f86611665565b60005b828110156118a757848901518255600182019150602085019450602081019050611882565b868310156118c457848901516118c0601f8916826117cd565b8355505b6001600288020188555050505b505050505050565b600060208201905081810360008301526118f38184610c77565b90509291505056fea2646970667358221220bca4f423499a3232f70630603d716f646dfc40d1b3bc755cbc96d639fb0077d664736f6c63430008140033",
  "linkReferences": {},
  "deployedLinkReferences": {}
}