{
  "_format": "hh-sol-artifact-1",
  "contractName": "GovernanceVoting",
  "sourceName": "contracts/GovernanceVoting.sol",
  "abi": [
    {
      "inputs": [
        {
          "internalType": "address",
          "name": "_token",
          "type": "address"
        }
      ],
      "stateMutability": "nonpayable",
      "type": "constructor"
    },
    {
      "anonymous": false,
      "inputs": [
        {
          "indexed": false,
          "internalType": "uint256",
          "name": "id",
          "type": "uint256"
        },
        {
          "indexed": false,
          "internalType": "string",
          "name": "description",
          "type": "string"
        }
      ],
      "name": "ProposalCreated",
      "type": "event"
    },
    {
      "anonymous": false,
      "inputs": [
        {
          "indexed": false,
          "internalType": "uint256",
          "name": "proposalId",
          "type": "uint256"
        },
        {
          "indexed": false,
          "internalType": "bytes",
          "name": "data",
          "type": "bytes"
        }
      ],
      "name": "ProposalPassed",
      "type": "event"
    },
    {
      "inputs": [
        {
          "internalType": "string",
          "name": "description",
          "type": "string"
        }
      ],
      "name": "createProposal",
      "outputs": [],
      "stateMutability": "nonpayable",
      "type": "function"
    },
    {
      "inputs": [
        {
          "internalType": "uint256",
          "name": "proposalId",
          "type": "uint256"
        }
      ],
      "name": "execute",
      "outputs": [],
      "stateMutability": "nonpayable",
      "type": "function"
    },
    {
      "inputs": [
        {
          "internalType": "uint256",
          "name": "",
          "type": "uint256"
        },
        {
          "internalType": "address",
          "name": "",
          "type": "address"
        }
      ],
      "name": "hasVoted",
      "outputs": [
        {
          "internalType": "bool",
          "name": "",
          "type": "bool"
        }
      ],
      "stateMutability": "view",
      "type": "function"
    },
    {
      "inputs": [],
      "name": "proposalCount",
      "outputs": [
        {
          "internalType": "uint256",
          "name": "",
          "type": "uint256"
        }
      ],
      "stateMutability": "view",
      "type": "function"
    },
    {
      "inputs": [
        {
          "internalType": "uint256",
          "name": "",
          "type": "uint256"
        }
      ],
      "name": "proposals",
      "outputs": [
        {
          "internalType": "uint256",
          "name": "id",
          "type": "uint256"
        },
        {
          "internalType": "string",
          "name": "description",
          "type": "string"
        },
        {
          "internalType": "uint256",
          "name": "voteCount",
          "type": "uint256"
        },
        {
          "internalType": "bool",
          "name": "executed",
          "type": "bool"
        }
      ],
      "stateMutability": "view",
      "type": "function"
    },
    {
      "inputs": [],
      "name": "token",
      "outputs": [
        {
          "internalType": "contract WrappedVaultToken",
          "name": "",
          "type": "address"
        }
      ],
      "stateMutability": "view",
      "type": "function"
    },
    {
      "inputs": [
        {
          "internalType": "uint256",
          "name": "proposalId",
          "type": "uint256"
        }
      ],
      "name": "vote",
      "outputs": [],
      "stateMutability": "nonpayable",
      "type": "function"
    }
  ],
  "bytecode": "0x60806040523480156200001157600080fd5b50604051620013ac380380620013ac8339818101604052810190620000379190620000e8565b806000806101000a81548173ffffffffffffffffffffffffffffffffffffffff021916908373ffffffffffffffffffffffffffffffffffffffff160217905550506200011a565b600080fd5b600073ffffffffffffffffffffffffffffffffffffffff82169050919050565b6000620000b08262000083565b9050919050565b620000c281620000a3565b8114620000ce57600080fd5b50565b600081519050620000e281620000b7565b92915050565b6000602082840312156200010157620001006200007e565b5b60006200011184828501620000d1565b91505092915050565b611282806200012a6000396000f3fe608060405234801561001057600080fd5b506004361061007d5760003560e01c806349c2a1a61161005b57806349c2a1a614610101578063da35c6641461011d578063fc0c546a1461013b578063fe0d94c1146101595761007d565b80630121b93f14610082578063013cf08b1461009e57806343859632146100d1575b600080fd5b61009c60048036038101906100979190610791565b610175565b005b6100b860048036038101906100b39190610791565b610422565b6040516100c89493929190610878565b60405180910390f35b6100eb60048036038101906100e69190610922565b6104e7565b6040516100f89190610962565b60405180910390f35b61011b60048036038101906101169190610ab2565b610516565b005b6101256105f5565b6040516101329190610afb565b60405180910390f35b6101436105fb565b6040516101509190610b75565b60405180910390f35b610173600480360381019061016e9190610791565b61061f565b005b6002600082815260200190815260200160002060003373ffffffffffffffffffffffffffffffffffffffff1673ffffffffffffffffffffffffffffffffffffffff16815260200190815260200160002060009054906101000a900460ff1615610213576040517f08c379a000000000000000000000000000000000000000000000000000000000815260040161020a90610bdc565b60405180910390fd5b60008060009054906101000a900473ffffffffffffffffffffffffffffffffffffffff1673ffffffffffffffffffffffffffffffffffffffff166370a08231336040518263ffffffff1660e01b815260040161026f9190610c0b565b602060405180830381865afa15801561028c573d6000803e3d6000fd5b505050506040513d601f19601f820116820180604052508101906102b09190610c3b565b116102f0576040517f08c379a00000000000000000000000000000000000000000000000000000000081526004016102e790610cb4565b60405180910390fd5b60016002600083815260200190815260200160002060003373ffffffffffffffffffffffffffffffffffffffff1673ffffffffffffffffffffffffffffffffffffffff16815260200190815260200160002060006101000a81548160ff02191690831515021790555060008054906101000a900473ffffffffffffffffffffffffffffffffffffffff1673ffffffffffffffffffffffffffffffffffffffff166370a08231336040518263ffffffff1660e01b81526004016103b29190610c0b565b602060405180830381865afa1580156103cf573d6000803e3d6000fd5b505050506040513d601f19601f820116820180604052508101906103f39190610c3b565b6001600083815260200190815260200160002060020160008282546104189190610d03565b9250508190555050565b600160205280600052604060002060009150905080600001549080600101805461044b90610d66565b80601f016020809104026020016040519081016040528092919081815260200182805461047790610d66565b80156104c45780601f10610499576101008083540402835291602001916104c4565b820191906000526020600020905b8154815290600101906020018083116104a757829003601f168201915b5050505050908060020154908060030160009054906101000a900460ff16905084565b60026020528160005260406000206020528060005260406000206000915091509054906101000a900460ff1681565b6003600081548092919061052990610d97565b91905055506040518060800160405280600354815260200182815260200160008152602001600015158152506001600060035481526020019081526020016000206000820151816000015560208201518160010190816105899190610f81565b506040820151816002015560608201518160030160006101000a81548160ff0219169083151502179055509050507f9c770c289ab5bf7e57cb1d23c8ceae993aea46eb64847072fd3d78ca60d3e432600354826040516105ea929190611053565b60405180910390a150565b60035481565b60008054906101000a900473ffffffffffffffffffffffffffffffffffffffff1681565b60006001600083815260200190815260200160002090508060030160009054906101000a900460ff1615610688576040517f08c379a000000000000000000000000000000000000000000000000000000000815260040161067f906110cf565b60405180910390fd5b6103e88160020154116106d0576040517f08c379a00000000000000000000000000000000000000000000000000000000081526004016106c79061113b565b60405180910390fd5b60018160030160006101000a81548160ff0219169083151502179055507f776b7aa644ed5d6871130e519e32d05cce6f3b7246f0dd27854600563e47b6808260405160200161071e906111a7565b60405160208183030381529060405260405161073b92919061121c565b60405180910390a15050565b6000604051905090565b600080fd5b600080fd5b6000819050919050565b61076e8161075b565b811461077957600080fd5b50565b60008135905061078b81610765565b92915050565b6000602082840312156107a7576107a6610751565b5b60006107b58482850161077c565b91505092915050565b6107c78161075b565b82525050565b600081519050919050565b600082825260208201905092915050565b60005b838110156108075780820151818401526020810190506107ec565b60008484015250505050565b6000601f19601f8301169050919050565b600061082f826107cd565b61083981856107d8565b93506108498185602086016107e9565b61085281610813565b840191505092915050565b60008115159050919050565b6108728161085d565b82525050565b600060808201905061088d60008301876107be565b818103602083015261089f8186610824565b90506108ae60408301856107be565b6108bb6060830184610869565b95945050505050565b600073ffffffffffffffffffffffffffffffffffffffff82169050919050565b60006108ef826108c4565b9050919050565b6108ff816108e4565b811461090a57600080fd5b50565b60008135905061091c816108f6565b92915050565b6000806040838503121561093957610938610751565b5b60006109478582860161077c565b92505060206109588582860161090d565b9150509250929050565b60006020820190506109776000830184610869565b92915050565b600080fd5b600080fd5b7f4e487b7100000000000000000000000000000000000000000000000000000000600052604160045260246000fd5b6109bf82610813565b810181811067ffffffffffffffff821117156109de576109dd610987565b5b80604052505050565b60006109f1610747565b90506109fd82826109b6565b919050565b600067ffffffffffffffff821115610a1d57610a1c610987565b5b610a2682610813565b9050602081019050919050565b82818337600083830152505050565b6000610a55610a5084610a02565b6109e7565b905082815260208101848484011115610a7157610a70610982565b5b610a7c848285610a33565b509392505050565b600082601f830112610a9957610a9861097d565b5b8135610aa9848260208601610a42565b91505092915050565b600060208284031215610ac857610ac7610751565b5b600082013567ffffffffffffffff811115610ae657610ae5610756565b5b610af284828501610a84565b91505092915050565b6000602082019050610b1060008301846107be565b92915050565b6000819050919050565b6000610b3b610b36610b31846108c4565b610b16565b6108c4565b9050919050565b6000610b4d82610b20565b9050919050565b6000610b5f82610b42565b9050919050565b610b6f81610b54565b82525050565b6000602082019050610b8a6000830184610b66565b92915050565b7f416c726561647920766f74656400000000000000000000000000000000000000600082015250565b6000610bc6600d836107d8565b9150610bd182610b90565b602082019050919050565b60006020820190508181036000830152610bf581610bb9565b9050919050565b610c05816108e4565b82525050565b6000602082019050610c206000830184610bfc565b92915050565b600081519050610c3581610765565b92915050565b600060208284031215610c5157610c50610751565b5b6000610c5f84828501610c26565b91505092915050565b7f4d75737420686f6c6420746f6b656e7320746f20766f74650000000000000000600082015250565b6000610c9e6018836107d8565b9150610ca982610c68565b602082019050919050565b60006020820190508181036000830152610ccd81610c91565b9050919050565b7f4e487b7100000000000000000000000000000000000000000000000000000000600052601160045260246000fd5b6000610d0e8261075b565b9150610d198361075b565b9250828201905080821115610d3157610d30610cd4565b5b92915050565b7f4e487b7100000000000000000000000000000000000000000000000000000000600052602260045260246000fd5b60006002820490506001821680610d7e57607f821691505b602082108103610d9157610d90610d37565b5b50919050565b6000610da28261075b565b91507fffffffffffffffffffffffffffffffffffffffffffffffffffffffffffffffff8203610dd457610dd3610cd4565b5b600182019050919050565b60008190508160005260206000209050919050565b60006020601f8301049050919050565b600082821b905092915050565b600060088302610e417fffffffffffffffffffffffffffffffffffffffffffffffffffffffffffffffff82610e04565b610e4b8683610e04565b95508019841693508086168417925050509392505050565b6000610e7e610e79610e748461075b565b610b16565b61075b565b9050919050565b6000819050919050565b610e9883610e63565b610eac610ea482610e85565b848454610e11565b825550505050565b600090565b610ec1610eb4565b610ecc818484610e8f565b505050565b5b81811015610ef057610ee5600082610eb9565b600181019050610ed2565b5050565b601f821115610f3557610f0681610ddf565b610f0f84610df4565b81016020851015610f1e578190505b610f32610f2a85610df4565b830182610ed1565b50505b505050565b600082821c905092915050565b6000610f5860001984600802610f3a565b1980831691505092915050565b6000610f718383610f47565b9150826002028217905092915050565b610f8a826107cd565b67ffffffffffffffff811115610fa357610fa2610987565b5b610fad8254610d66565b610fb8828285610ef4565b600060209050601f831160018114610feb5760008415610fd9578287015190505b610fe38582610f65565b86555061104b565b601f198416610ff986610ddf565b60005b8281101561102157848901518255600182019150602085019450602081019050610ffc565b8683101561103e578489015161103a601f891682610f47565b8355505b6001600288020188555050505b505050505050565b600060408201905061106860008301856107be565b818103602083015261107a8184610824565b90509392505050565b7f416c726561647920657865637574656400000000000000000000000000000000600082015250565b60006110b96010836107d8565b91506110c482611083565b602082019050919050565b600060208201905081810360008301526110e8816110ac565b9050919050565b7f496e73756666696369656e7420766f7465730000000000000000000000000000600082015250565b60006111256012836107d8565b9150611130826110ef565b602082019050919050565b6000602082019050818103600083015261115481611118565b9050919050565b7f50415553455f4252494447450000000000000000000000000000000000000000600082015250565b6000611191600c836107d8565b915061119c8261115b565b602082019050919050565b600060208201905081810360008301526111c081611184565b9050919050565b600081519050919050565b600082825260208201905092915050565b60006111ee826111c7565b6111f881856111d2565b93506112088185602086016107e9565b61121181610813565b840191505092915050565b600060408201905061123160008301856107be565b818103602083015261124381846111e3565b9050939250505056fea26469706673582212205bd0821a79626e7f2388b6c81e3a6bee693c3c7ff097013b7680159f740da43064736f6c63430008140033",
  "linkReferences": {},
  "deployedLinkReferences": {}
}