{
  "_format": "hh-sol-artifact-1",
  "contractName": "WrappedVaultToken",
  "sourceName": "contracts/WrappedVaultToken.sol",
  "abi": [
    {
      "inputs": [],
      "stateMutability": "nonpayable",
      "type": "constructor"
    },
    {
      "inputs": [],
      "name": "AccessControlBadConfirmation",
      "type": "error"
    },
    {
      "inputs": [
        {
          "internalType": "address",
          "name": "account",
          "type": "address"
        },
        {
          "internalType": "bytes32",
          "name": "neededRole",
          "type": "bytes32"
        }
      ],
      "name": "AccessControlUnauthorizedAccount",
      "type": "error"
    },
    {
      "inputs": [
        {
          "internalType": "address",
          "name": "spender",
          "type": "address"
        },
        {
          "internalType": "uint256",
          "name": "allowance",
          "type": "uint256"
        },
        {
          "internalType": "uint256",
          "name": "needed",
          "type": "uint256"
        }
      ],
      "name": "ERC20InsufficientAllowance",
      "type": "error"
    },
    {
      "inputs": [
        {
          "internalType": "address",
          "name": "sender",
          "type": "address"
        },
        {
          "internalType": "uint256",
          "name": "balance",
          "type": "uint256"
        },
        {
          "internalType": "uint256",
          "name": "needed",
          "type": "uint256"
        }
      ],
      "name": "ERC20InsufficientBalance",
      "type": "error"
    },
    {
      "inputs": [
        {
          "internalType": "address",
          "name": "approver",
          "type": "address"
        }
      ],
      "name": "ERC20InvalidApprover",
      "type": "error"
    },
    {
      "inputs": [
        {
          "internalType": "address",
          "name": "receiver",
          "type": "address"
        }
      ],
      "name": "ERC20InvalidReceiver",
      "type": "error"
    },
    {
      "inputs": [
        {
          "internalType": "address",
          "name": "sender",
          "type": "address"
        }
      ],
      "name": "ERC20InvalidSender",
      "type": "error"
    },
    {
      "inputs": [
        {
          "internalType": "address",
          "name": "spender",
          "type": "address"
        }
      ],
      "name": "ERC20InvalidSpender",
      "type": "error"
    },
    {
      "anonymous": false,
      "inputs": [
        {
          "indexed": true,
          "internalType": "address",
          "name": "owner",
          "type": "address"
        },
        {
          "indexed": true,
          "internalType": "address",
          "name": "spender",
          "type": "address"
        },
        {
          "indexed": false,
          "internalType": "uint256",
          "name": "value",
          "type": "uint256"
        }
      ],
      "name": "Approval",
      "type": "event"
    },
    {
      "anonymous": false,
      "inputs": [
        {
          "indexed": true,
          "internalType": "bytes32",
          "name": "role",
          "type": "bytes32"
        },
        {
          "indexed": true,
          "internalType": "bytes32",
          "name": "previousAdminRole",
          "type": "bytes32"
        },
        {
          "indexed": true,
          "internalType": "bytes32",
          "name": "newAdminRole",
          "type": "bytes32"
        }
      ],
      "name": "RoleAdminChanged",
      "type": "event"
    },
    {
      "anonymous": false,
      "inputs": [
        {
          "indexed": true,
          "internalType": "bytes32",
          "name": "role",
          "type": "bytes32"
        },
        {
          "indexed": true,
          "internalType": "address",
          "name": "account",
          "type": "address"
        },
        {
          "indexed": true,
          "internalType": "address",
          "name": "sender",
          "type": "address"
        }
      ],
      "name": "RoleGranted",
      "type": "event"
    },
    {
      "anonymous": false,
      "inputs": [
        {
          "indexed": true,
          "internalType": "bytes32",
          "name": "role",
          "type": "bytes32"
        },
        {
          "indexed": true,
          "internalType": "address",
          "name": "account",
          "type": "address"
        },
        {
          "indexed": true,
          "internalType": "address",
          "name": "sender",
          "type": "address"
        }
      ],
      "name": "RoleRevoked",
      "type": "event"
    },
    {
      "anonymous": false,
      "inputs": [
        {
          "indexed": true,
          "internalType": "address",
          "name": "from",
          "type": "address"
        },
        {
          "indexed": true,
          "internalType": "address",
          "name": "to",
          "type": "address"
        },
        {
          "indexed": false,
          "internalType": "uint256",
          "name": "value",
          "type": "uint256"
        }
      ],
      "name": "Transfer",
      "type": "event"
    },
    {
      "inputs": [],
      "name": "DEFAULT_ADMIN_ROLE",
      "outputs": [
        {
          "internalType": "bytes32",
          "name": "",
          "type": "bytes32"
        }
      ],
      "stateMutability": "view",
      "type": "function"
    },
    {
      "inputs": [],
      "name": "MINTER_ROLE",
      "outputs": [
        {
          "internalType": "bytes32",
          "name": "",
          "type": "bytes32"
        }
      ],
      "stateMutability": "view",
      "type": "function"
    },
    {
      "inputs": [
        {
          "internalType": "address",
          "name": "owner",
          "type": "address"
        },
        {
          "internalType": "address",
          "name": "spender",
          "type": "address"
        }
      ],
      "name": "allowance",
      "outputs": [
        {
          "internalType": "uint256",
          "name": "",
          "type": "uint256"
        }
      ],
      "stateMutability": "view",
      "type": "function"
    },
    {
      "inputs": [
        {
          "internalType": "address",
          "name": "spender",
          "type": "address"
        },
        {
          "internalType": "uint256",
          "name": "value",
          "type": "uint256"
        }
      ],
      "name": "approve",
      "outputs": [
        {
          "internalType": "bool",
          "name": "",
          "type": "bool"
        }
      ],
      "stateMutability": "nonpayable",
      "type": "function"
    },
    {
      "inputs": [
        {
          "internalType": "address",
          "name": "account",
          "type": "address"
        }
      ],
      "name": "balanceOf",
      "outputs": [
        {
          "internalType": "uint256",
          "name": "",
          "type": "uint256"
        }
      ],
      "stateMutability": "view",
      "type": "function"
    },
    {
      "inputs": [
        {
          "internalType": "address",
          "name": "account",
          "type": "address"
        },
        {
          "internalType": "uint256",
          "name": "amount",
          "type": "uint256"
        }
      ],
      "name": "burn",
      "outputs": [],
      "stateMutability": "nonpayable",
      "type": "function"
    },
    {
      "inputs": [],
      "name": "decimals",
      "outputs": [
        {
          "internalType": "uint8",
          "name": "",
          "type": "uint8"
        }
      ],
      "stateMutability": "view",
      "type": "function"
    },
    {
      "inputs": [
        {
          "internalType": "bytes32",
          "name": "role",
          "type": "bytes32"
        }
      ],
      "name": "getRoleAdmin",
      "outputs": [
        {
          "internalType": "bytes32",
          "name": "",
          "type": "bytes32"
        }
      ],
      "stateMutability": "view",
      "type": "function"
    },
    {
      "inputs": [
        {
          "internalType": "bytes32",
          "name": "role",
          "type": "bytes32"
        },
        {
          "internalType": "address",
          "name": "account",
          "type": "address"
        }
      ],
      "name": "grantRole",
      "outputs": [],
      "stateMutability": "nonpayable",
      "type": "function"
    },
    {
      "inputs": [
        {
          "internalType": "bytes32",
          "name": "role",
          "type": "bytes32"
        },
        {
          "internalType": "address",
          "name": "account",
          "type": "address"
        }
      ],
      "name": "hasRole",
      "outputs": [
        {
          "internalType": "bool",
          "name": "",
          "type": "bool"
        }
      ],
      "stateMutability": "view",
      "type": "function"
    },
    {
      "inputs": [
        {
          "internalType": "address",
          "name": "to",
          "type": "address"
        },
        {
          "internalType": "uint256",
          "name": "amount",
          "type": "uint256"
        }
      ],
      "name": "mint",
      "outputs": [],
      "stateMutability": "nonpayable",
      "type": "function"
    },
    {
      "inputs": [],
      "name": "name",
      "outputs": [
        {
          "internalType": "string",
          "name": "",
          "type": "string"
        }
      ],
      "stateMutability": "view",
      "type": "function"
    },
    {
      "inputs": [
        {
          "internalType": "bytes32",
          "name": "role",
          "type": "bytes32"
        },
        {
          "internalType": "address",
          "name": "callerConfirmation",
          "type": "address"
        }
      ],
      "name": "renounceRole",
      "outputs": [],
      "stateMutability": "nonpayable",
      "type": "function"
    },
    {
      "inputs": [
        {
          "internalType": "bytes32",
          "name": "role",
          "type": "bytes32"
        },
        {
          "internalType": "address",
          "name": "account",
          "type": "address"
        }
      ],
      "name": "revokeRole",
      "outputs": [],
      "stateMutability": "nonpayable",
      "type": "function"
    },
    {
      "inputs": [
        {
          "internalType": "bytes4",
          "name": "interfaceId",
          "type": "bytes4"
        }
      ],
      "name": "supportsInterface",
      "outputs": [
        {
          "internalType": "bool",
          "name": "",
          "type": "bool"
        }
      ],
      "stateMutability": "view",
      "type": "function"
    },
    {
      "inputs": [],
      "name": "symbol",
      "outputs": [
        {
          "internalType": "string",
          "name": "",
          "type": "string"
        }
      ],
      "stateMutability": "view",
      "type": "function"
    },
    {
      "inputs": [],
      "name": "totalSupply",
      "outputs": [
        {
          "internalType": "uint256",
          "name": "",
          "type": "uint256"
        }
      ],
      "stateMutability": "view",
      "type": "function"
    },
    {
      "inputs": [
        {
          "internalType": "address",
          "name": "to",
          "type": "address"
        },
        {
          "internalType": "uint256",
          "name": "value",
          "type": "uint256"
        }
      ],
      "name": "transfer",
      "outputs": [
        {
          "internalType": "bool",
          "name": "",
          "type": "bool"
        }
      ],
      "stateMutability": "nonpayable",
      "type": "function"
    },
    {
      "inputs": [
        {
          "internalType": "address",
          "name": "from",
          "type": "address"
        },
        {
          "internalType": "address",
          "name": "to",
          "type": "address"
        },
        {
          "internalType": "uint256",
          "name": "value",
          "type": "uint256"
        }
      ],
      "name": "transferFrom",
      "outputs": [
        {
          "internalType": "bool",
          "name": "",
          "type": "bool"
        }
      ],
      "stateMutability": "nonpayable",
      "type": "function"
    }
  ],
  "bytecode": "0x60806040523480156200001157600080fd5b506040518060400160405280601381526020017f57726170706564205661756c7420546f6b656e000000000000000000000000008152506040518060400160405280600481526020017f5756544b0000000000000000000000000000000000000000000000000000000081525081600390816200008f9190620004b1565b508060049081620000a19190620004b1565b505050620000b96000801b33620000c060201b60201c565b5062000598565b6000620000d48383620001c460201b60201c565b620001b95760016005600085815260200190815260200160002060000160008473ffffffffffffffffffffffffffffffffffffffff1673ffffffffffffffffffffffffffffffffffffffff16815260200190815260200160002060006101000a81548160ff021916908315150217905550620001556200022f60201b60201c565b73ffffffffffffffffffffffffffffffffffffffff168273ffffffffffffffffffffffffffffffffffffffff16847f2f8788117e7eff1d82e926ec794901d17c78024a50270940304540a733656f0d60405160405180910390a460019050620001be565b600090505b92915050565b60006005600084815260200190815260200160002060000160008373ffffffffffffffffffffffffffffffffffffffff1673ffffffffffffffffffffffffffffffffffffffff16815260200190815260200160002060009054906101000a900460ff16905092915050565b600033905090565b600081519050919050565b7f4e487b7100000000000000000000000000000000000000000000000000000000600052604160045260246000fd5b7f4e487b7100000000000000000000000000000000000000000000000000000000600052602260045260246000fd5b60006002820490506001821680620002b957607f821691505b602082108103620002cf57620002ce62000271565b5b50919050565b60008190508160005260206000209050919050565b60006020601f8301049050919050565b600082821b905092915050565b600060088302620003397fffffffffffffffffffffffffffffffffffffffffffffffffffffffffffffffff82620002fa565b620003458683620002fa565b95508019841693508086168417925050509392505050565b6000819050919050565b6000819050919050565b6000620003926200038c62000386846200035d565b62000367565b6200035d565b9050919050565b6000819050919050565b620003ae8362000371565b620003c6620003bd8262000399565b84845462000307565b825550505050565b600090565b620003dd620003ce565b620003ea818484620003a3565b505050565b5b81811015620004125762000406600082620003d3565b600181019050620003f0565b5050565b601f82111562000461576200042b81620002d5565b6200043684620002ea565b8101602085101562000446578190505b6200045e6200045585620002ea565b830182620003ef565b50505b505050565b600082821c905092915050565b6000620004866000198460080262000466565b1980831691505092915050565b6000620004a1838362000473565b9150826002028217905092915050565b620004bc8262000237565b67ffffffffffffffff811115620004d857620004d762000242565b5b620004e48254620002a0565b620004f182828562000416565b600060209050601f83116001811462000529576000841562000514578287015190505b62000520858262000493565b86555062000590565b601f1984166200053986620002d5565b60005b8281101562000563578489015182556001820191506020850194506020810190506200053c565b868310156200058357848901516200057f601f89168262000473565b8355505b6001600288020188555050505b505050505050565b6117e280620005a86000396000f3fe608060405234801561001057600080fd5b50600436106101215760003560e01c806340c10f19116100ad578063a217fddf11610071578063a217fddf1461032e578063a9059cbb1461034c578063d53913931461037c578063d547741f1461039a578063dd62ed3e146103b657610121565b806340c10f191461027857806370a082311461029457806391d14854146102c457806395d89b41146102f45780639dc29fac1461031257610121565b806323b872dd116100f457806323b872dd146101c2578063248a9ca3146101f25780632f2ff15d14610222578063313ce5671461023e57806336568abe1461025c57610121565b806301ffc9a71461012657806306fdde0314610156578063095ea7b31461017457806318160ddd146101a4575b600080fd5b610140600480360381019061013b9190611288565b6103e6565b60405161014d91906112d0565b60405180910390f35b61015e6103f8565b60405161016b919061137b565b60405180910390f35b61018e60048036038101906101899190611431565b61048a565b60405161019b91906112d0565b60405180910390f35b6101ac6104ad565b6040516101b99190611480565b60405180910390f35b6101dc60048036038101906101d7919061149b565b6104b7565b6040516101e991906112d0565b60405180910390f35b61020c60048036038101906102079190611524565b6104e6565b6040516102199190611560565b60405180910390f35b61023c6004803603810190610237919061157b565b610506565b005b610246610528565b60405161025391906115d7565b60405180910390f35b6102766004803603810190610271919061157b565b610531565b005b610292600480360381019061028d9190611431565b6105ac565b005b6102ae60048036038101906102a991906115f2565b6105e5565b6040516102bb9190611480565b60405180910390f35b6102de60048036038101906102d9919061157b565b61062d565b6040516102eb91906112d0565b60405180910390f35b6102fc610698565b604051610309919061137b565b60405180910390f35b61032c60048036038101906103279190611431565b61072a565b005b610336610763565b6040516103439190611560565b60405180910390f35b61036660048036038101906103619190611431565b61076a565b60405161037391906112d0565b60405180910390f35b61038461078d565b6040516103919190611560565b60405180910390f35b6103b460048036038101906103af919061157b565b6107b1565b005b6103d060048036038101906103cb919061161f565b6107d3565b6040516103dd9190611480565b60405180910390f35b60006103f18261085a565b9050919050565b6060600380546104079061168e565b80601f01602080910402602001604051908101604052809291908181526020018280546104339061168e565b80156104805780601f1061045557610100808354040283529160200191610480565b820191906000526020600020905b81548152906001019060200180831161046357829003601f168201915b5050505050905090565b6000806104956108d4565b90506104a28185856108dc565b600191505092915050565b6000600254905090565b6000806104c26108d4565b90506104cf8582856108ee565b6104da858585610983565b60019150509392505050565b600060056000838152602001908152602001600020600101549050919050565b61050f826104e6565b61051881610a77565b6105228383610a8b565b50505050565b60006012905090565b6105396108d4565b73ffffffffffffffffffffffffffffffffffffffff168173ffffffffffffffffffffffffffffffffffffffff161461059d576040517f6697b23200000000000000000000000000000000000000000000000000000000815260040160405180910390fd5b6105a78282610b7d565b505050565b7f9f2df0fed2c77648de5860a4cc508cd0818c85b8b8a1ab4ceeef8d981c8956a66105d681610a77565b6105e08383610c70565b505050565b60008060008373ffffffffffffffffffffffffffffffffffffffff1673ffffffffffffffffffffffffffffffffffffffff168152602001908152602001600020549050919050565b60006005600084815260200190815260200160002060000160008373ffffffffffffffffffffffffffffffffffffffff1673ffffffffffffffffffffffffffffffffffffffff16815260200190815260200160002060009054906101000a900460ff16905092915050565b6060600480546106a79061168e565b80601f01602080910402602001604051908101604052809291908181526020018280546106d39061168e565b80156107205780601f106106f557610100808354040283529160200191610720565b820191906000526020600020905b81548152906001019060200180831161070357829003601f168201915b5050505050905090565b7f9f2df0fed2c77648de5860a4cc508cd0818c85b8b8a1ab4ceeef8d981c8956a661075481610a77565b61075e8383610cf2565b505050565b6000801b81565b6000806107756108d4565b9050610782818585610983565b600191505092915050565b7f9f2df0fed2c77648de5860a4cc508cd0818c85b8b8a1ab4ceeef8d981c8956a681565b6107ba826104e6565b6107c381610a77565b6107cd8383610b7d565b50505050565b6000600160008473ffffffffffffffffffffffffffffffffffffffff1673ffffffffffffffffffffffffffffffffffffffff16815260200190815260200160002060008373ffffffffffffffffffffffffffffffffffffffff1673ffffffffffffffffffffffffffffffffffffffff16815260200190815260200160002054905092915050565b60007f7965db0b000000000000000000000000000000000000000000000000000000007bffffffffffffffffffffffffffffffffffffffffffffffffffffffff1916827bffffffffffffffffffffffffffffffffffffffffffffffffffffffff191614806108cd57506108cc82610d74565b5b9050919050565b600033905090565b6108e98383836001610dde565b505050565b60006108fa84846107d3565b90507fffffffffffffffffffffffffffffffffffffffffffffffffffffffffffffffff81101561097d578181101561096d578281836040517ffb8f41b2000000000000000000000000000000000000000000000000000000008152600401610964939291906116ce565b60405180910390fd5b61097c84848484036000610dde565b5b50505050565b600073ffffffffffffffffffffffffffffffffffffffff168373ffffffffffffffffffffffffffffffffffffffff16036109f55760006040517f96c6fd1e0000000000000000000000000000000000000000000000000000000081526004016109ec9190611705565b60405180910390fd5b600073ffffffffffffffffffffffffffffffffffffffff168273ffffffffffffffffffffffffffffffffffffffff1603610a675760006040517fec442f05000000000000000000000000000000000000000000000000000000008152600401610a5e9190611705565b60405180910390fd5b610a72838383610fb5565b505050565b610a8881610a836108d4565b6111da565b50565b6000610a97838361062d565b610b725760016005600085815260200190815260200160002060000160008473ffffffffffffffffffffffffffffffffffffffff1673ffffffffffffffffffffffffffffffffffffffff16815260200190815260200160002060006101000a81548160ff021916908315150217905550610b0f6108d4565b73ffffffffffffffffffffffffffffffffffffffff168273ffffffffffffffffffffffffffffffffffffffff16847f2f8788117e7eff1d82e926ec794901d17c78024a50270940304540a733656f0d60405160405180910390a460019050610b77565b600090505b92915050565b6000610b89838361062d565b15610c655760006005600085815260200190815260200160002060000160008473ffffffffffffffffffffffffffffffffffffffff1673ffffffffffffffffffffffffffffffffffffffff16815260200190815260200160002060006101000a81548160ff021916908315150217905550610c026108d4565b73ffffffffffffffffffffffffffffffffffffffff168273ffffffffffffffffffffffffffffffffffffffff16847ff6391f5c32d9c69d2a47ea670b442974b53935d1edc7fd64eb21e047a839171b60405160405180910390a460019050610c6a565b600090505b92915050565b600073ffffffffffffffffffffffffffffffffffffffff168273ffffffffffffffffffffffffffffffffffffffff1603610ce25760006040517fec442f05000000000000000000000000000000000000000000000000000000008152600401610cd99190611705565b60405180910390fd5b610cee60008383610fb5565b5050565b600073ffffffffffffffffffffffffffffffffffffffff168273ffffffffffffffffffffffffffffffffffffffff1603610d645760006040517f96c6fd1e000000000000000000000000000000000000000000000000000000008152600401610d5b9190611705565b60405180910390fd5b610d7082600083610fb5565b5050565b60007f01ffc9a7000000000000000000000000000000000000000000000000000000007bffffffffffffffffffffffffffffffffffffffffffffffffffffffff1916827bffffffffffffffffffffffffffffffffffffffffffffffffffffffff1916149050919050565b600073ffffffffffffffffffffffffffffffffffffffff168473ffffffffffffffffffffffffffffffffffffffff1603610e505760006040517fe602df05000000000000000000000000000000000000000000000000000000008152600401610e479190611705565b60405180910390fd5b600073ffffffffffffffffffffffffffffffffffffffff168373ffffffffffffffffffffffffffffffffffffffff1603610ec25760006040517f94280d62000000000000000000000000000000000000000000000000000000008152600401610eb99190611705565b60405180910390fd5b81600160008673ffffffffffffffffffffffffffffffffffffffff1673ffffffffffffffffffffffffffffffffffffffff16815260200190815260200160002060008573ffffffffffffffffffffffffffffffffffffffff1673ffffffffffffffffffffffffffffffffffffffff168152602001908152602001600020819055508015610faf578273ffffffffffffffffffffffffffffffffffffffff168473ffffffffffffffffffffffffffffffffffffffff167f8c5be1e5ebec7d5bd14f71427d1e84f3dd0314c0f7b2291e5b200ac8c7c3b92584604051610fa69190611480565b60405180910390a35b50505050565b600073ffffffffffffffffffffffffffffffffffffffff168373ffffffffffffffffffffffffffffffffffffffff1603611007578060026000828254610ffb919061174f565b925050819055506110da565b60008060008573ffffffffffffffffffffffffffffffffffffffff1673ffffffffffffffffffffffffffffffffffffffff16815260200190815260200160002054905081811015611093578381836040517fe450d38c00000000000000000000000000000000000000000000000000000000815260040161108a939291906116ce565b60405180910390fd5b8181036000808673ffffffffffffffffffffffffffffffffffffffff1673ffffffffffffffffffffffffffffffffffffffff16815260200190815260200160002081905550505b600073ffffffffffffffffffffffffffffffffffffffff168273ffffffffffffffffffffffffffffffffffffffff16036111235780600260008282540392505081905550611170565b806000808473ffffffffffffffffffffffffffffffffffffffff1673ffffffffffffffffffffffffffffffffffffffff168152602001908152602001600020600082825401925050819055505b8173ffffffffffffffffffffffffffffffffffffffff168373ffffffffffffffffffffffffffffffffffffffff167fddf252ad1be2c89b69c2b068fc378daa952ba7f163c4a11628f55a4df523b3ef836040516111cd9190611480565b60405180910390a3505050565b6111e4828261062d565b6112275780826040517fe2517d3f00000000000000000000000000000000000000000000000000000000815260040161121e929190611783565b60405180910390fd5b5050565b600080fd5b60007fffffffff0000000000000000000000000000000000000000000000000000000082169050919050565b61126581611230565b811461127057600080fd5b50565b6000813590506112828161125c565b92915050565b60006020828403121561129e5761129d61122b565b5b60006112ac84828501611273565b91505092915050565b60008115159050919050565b6112ca816112b5565b82525050565b60006020820190506112e560008301846112c1565b92915050565b600081519050919050565b600082825260208201905092915050565b60005b8381101561132557808201518184015260208101905061130a565b60008484015250505050565b6000601f19601f8301169050919050565b600061134d826112eb565b61135781856112f6565b9350611367818560208601611307565b61137081611331565b840191505092915050565b600060208201905081810360008301526113958184611342565b905092915050565b600073ffffffffffffffffffffffffffffffffffffffff82169050919050565b60006113c88261139d565b9050919050565b6113d8816113bd565b81146113e357600080fd5b50565b6000813590506113f5816113cf565b92915050565b6000819050919050565b61140e816113fb565b811461141957600080fd5b50565b60008135905061142b81611405565b92915050565b600080604083850312156114485761144761122b565b5b6000611456858286016113e6565b92505060206114678582860161141c565b9150509250929050565b61147a816113fb565b82525050565b60006020820190506114956000830184611471565b92915050565b6000806000606084860312156114b4576114b361122b565b5b60006114c2868287016113e6565b93505060206114d3868287016113e6565b92505060406114e48682870161141c565b9150509250925092565b6000819050919050565b611501816114ee565b811461150c57600080fd5b50565b60008135905061151e816114f8565b92915050565b60006020828403121561153a5761153961122b565b5b60006115488482850161150f565b91505092915050565b61155a816114ee565b82525050565b60006020820190506115756000830184611551565b92915050565b600080604083850312156115925761159161122b565b5b60006115a08582860161150f565b92505060206115b1858286016113e6565b9150509250929050565b600060ff82169050919050565b6115d1816115bb565b82525050565b60006020820190506115ec60008301846115c8565b92915050565b6000602082840312156116085761160761122b565b5b6000611616848285016113e6565b91505092915050565b600080604083850312156116365761163561122b565b5b6000611644858286016113e6565b9250506020611655858286016113e6565b9150509250929050565b7f4e487b7100000000000000000000000000000000000000000000000000000000600052602260045260246000fd5b600060028204905060018216806116a657607f821691505b6020821081036116b9576116b861165f565b5b50919050565b6116c8816113bd565b82525050565b60006060820190506116e360008301866116bf565b6116f06020830185611471565b6116fd6040830184611471565b949350505050565b600060208201905061171a60008301846116bf565b92915050565b7f4e487b7100000000000000000000000000000000000000000000000000000000600052601160045260246000fd5b600061175a826113fb565b9150611765836113fb565b925082820190508082111561177d5761177c611720565b5b92915050565b600060408201905061179860008301856116bf565b6117a56020830184611551565b939250505056fea264697066735822122039bbee77de0f2e29de40a54286cc7a3c4ee96d05cd0aa188aea4acbdb681faa164736f6c63430008140033",
  "linkReferences": {},
  "deployedLinkReferences": {}
}