{
  "_format": "hh-sol-artifact-1",
  "contractName": "BridgeLock",
  "sourceName": "contracts/BridgeLock.sol",
  "abi": [
    {
      "inputs": [
        {
          "internalType": "address",
          "name": "_vaultToken",
          "type": "address"
        }
      ],
      "stateMutability": "nonpayable",
      "type": "constructor"
    },
    {
      "inputs": [],
      "name": "AccessControlBadConfirmation",
      "type": "error"
    },
    {
      "inputs": [
        {
          "internalType": "address",
          "name": "account",
          "type": "address"
        },
        {
          "internalType": "bytes32",
          "name": "neededRole",
          "type": "bytes32"
        }
      ],
      "name": "AccessControlUnauthorizedAccount",
      "type": "error"
    },
    {
      "inputs": [],
      "name": "EnforcedPause",
      "type": "error"
    },
    {
      "inputs": [],
      "name": "ExpectedPause",
      "type": "error"
    },
    {
      "anonymous": false,
      "inputs": [
        {
          "indexed": true,
          "internalType": "address",
          "name": "user",
          "type": "address"
        },
        {
          "indexed": false,
          "internalType": "uint256",
          "name": "amount",
          "type": "uint256"
        },
        {
          "indexed": false,
          "internalType": "uint256",
          "name": "nonce",
          "type": "uint256"
        }
      ],
      "name": "Locked",
      "type": "event"
    },
    {
      "anonymous": false,
      "inputs": [
        {
          "indexed": false,
          "internalType": "address",
          "name": "account",
          "type": "address"
        }
      ],
      "name": "Paused",
      "type": "event"
    },
    {
      "anonymous": false,
      "inputs": [
        {
          "indexed": true,
          "internalType": "bytes32",
          "name": "role",
          "type": "bytes32"
        },
        {
          "indexed": true,
          "internalType": "bytes32",
          "name": "previousAdminRole",
          "type": "bytes32"
        },
        {
          "indexed": true,
          "internalType": "bytes32",
          "name": "newAdminRole",
          "type": "bytes32"
        }
      ],
      "name": "RoleAdminChanged",
      "type": "event"
    },
    {
      "anonymous": false,
      "inputs": [
        {
          "indexed": true,
          "internalType": "bytes32",
          "name": "role",
          "type": "bytes32"
        },
        {
          "indexed": true,
          "internalType": "address",
          "name": "account",
          "type": "address"
        },
        {
          "indexed": true,
          "internalType": "address",
          "name": "sender",
          "type": "address"
        }
      ],
      "name": "RoleGranted",
      "type": "event"
    },
    {
      "anonymous": false,
      "inputs": [
        {
          "indexed": true,
          "internalType": "bytes32",
          "name": "role",
          "type": "bytes32"
        },
        {
          "indexed": true,
          "internalType": "address",
          "name": "account",
          "type": "address"
        },
        {
          "indexed": true,
          "internalType": "address",
          "name": "sender",
          "type": "address"
        }
      ],
      "name": "RoleRevoked",
      "type": "event"
    },
    {
      "anonymous": false,
      "inputs": [
        {
          "indexed": true,
          "internalType": "address",
          "name": "user",
          "type": "address"
        },
        {
          "indexed": false,
          "internalType": "uint256",
          "name": "amount",
          "type": "uint256"
        },
        {
          "indexed": false,
          "internalType": "uint256",
          "name": "nonce",
          "type": "uint256"
        }
      ],
      "name": "Unlocked",
      "type": "event"
    },
    {
      "anonymous": false,
      "inputs": [
        {
          "indexed": false,
          "internalType": "address",
          "name": "account",
          "type": "address"
        }
      ],
      "name": "Unpaused",
      "type": "event"
    },
    {
      "inputs": [],
      "name": "DEFAULT_ADMIN_ROLE",
      "outputs": [
        {
          "internalType": "bytes32",
          "name": "",
          "type": "bytes32"
        }
      ],
      "stateMutability": "view",
      "type": "function"
    },
    {
      "inputs": [],
      "name": "RELAYER_ROLE",
      "outputs": [
        {
          "internalType": "bytes32",
          "name": "",
          "type": "bytes32"
        }
      ],
      "stateMutability": "view",
      "type": "function"
    },
    {
      "inputs": [],
      "name": "currentNonce",
      "outputs": [
        {
          "internalType": "uint256",
          "name": "",
          "type": "uint256"
        }
      ],
      "stateMutability": "view",
      "type": "function"
    },
    {
      "inputs": [
        {
          "internalType": "bytes32",
          "name": "role",
          "type": "bytes32"
        }
      ],
      "name": "getRoleAdmin",
      "outputs": [
        {
          "internalType": "bytes32",
          "name": "",
          "type": "bytes32"
        }
      ],
      "stateMutability": "view",
      "type": "function"
    },
    {
      "inputs": [
        {
          "internalType": "bytes32",
          "name": "role",
          "type": "bytes32"
        },
        {
          "internalType": "address",
          "name": "account",
          "type": "address"
        }
      ],
      "name": "grantRole",
      "outputs": [],
      "stateMutability": "nonpayable",
      "type": "function"
    },
    {
      "inputs": [
        {
          "internalType": "bytes32",
          "name": "role",
          "type": "bytes32"
        },
        {
          "internalType": "address",
          "name": "account",
          "type": "address"
        }
      ],
      "name": "hasRole",
      "outputs": [
        {
          "internalType": "bool",
          "name": "",
          "type": "bool"
        }
      ],
      "stateMutability": "view",
      "type": "function"
    },
    {
      "inputs": [
        {
          "internalType": "uint256",
          "name": "amount",
          "type": "uint256"
        }
      ],
      "name": "lock",
      "outputs": [],
      "stateMutability": "nonpayable",
      "type": "function"
    },
    {
      "inputs": [],
      "name": "pause",
      "outputs": [],
      "stateMutability": "nonpayable",
      "type": "function"
    },
    {
      "inputs": [],
      "name": "paused",
      "outputs": [
        {
          "internalType": "bool",
          "name": "",
          "type": "bool"
        }
      ],
      "stateMutability": "view",
      "type": "function"
    },
    {
      "inputs": [
        {
          "internalType": "uint256",
          "name": "",
          "type": "uint256"
        }
      ],
      "name": "processedNonces",
      "outputs": [
        {
          "internalType": "bool",
          "name": "",
          "type": "bool"
        }
      ],
      "stateMutability": "view",
      "type": "function"
    },
    {
      "inputs": [
        {
          "internalType": "bytes32",
          "name": "role",
          "type": "bytes32"
        },
        {
          "internalType": "address",
          "name": "callerConfirmation",
          "type": "address"
        }
      ],
      "name": "renounceRole",
      "outputs": [],
      "stateMutability": "nonpayable",
      "type": "function"
    },
    {
      "inputs": [
        {
          "internalType": "bytes32",
          "name": "role",
          "type": "bytes32"
        },
        {
          "internalType": "address",
          "name": "account",
          "type": "address"
        }
      ],
      "name": "revokeRole",
      "outputs": [],
      "stateMutability": "nonpayable",
      "type": "function"
    },
    {
      "inputs": [
        {
          "internalType": "bytes4",
          "name": "interfaceId",
          "type": "bytes4"
        }
      ],
      "name": "supportsInterface",
      "outputs": [
        {
          "internalType": "bool",
          "name": "",
          "type": "bool"
        }
      ],
      "stateMutability": "view",
      "type": "function"
    },
    {
      "inputs": [
        {
          "internalType": "address",
          "name": "user",
          "type": "address"
        },
        {
          "internalType": "uint256",
          "name": "amount",
          "type": "uint256"
        },
        {
          "internalType": "uint256",
          "name": "nonce",
          "type": "uint256"
        }
      ],
      "name": "unlock",
      "outputs": [],
      "stateMutability": "nonpayable",
      "type": "function"
    },
    {
      "inputs": [],
      "name": "unpause",
      "outputs": [],
      "stateMutability": "nonpayable",
      "type": "function"
    },
    {
      "inputs": [],
      "name": "vaultToken",
      "outputs": [
        {
          "internalType": "contract IERC20",
          "name": "",
          "type": "address"
        }
      ],
      "stateMutability": "view",
      "type": "function"
    }
  ],
  "bytecode": "0x60806040523480156200001157600080fd5b506040516200165338038062001653833981810160405281019062000037919062000275565b80600260006101000a81548173ffffffffffffffffffffffffffffffffffffffff021916908373ffffffffffffffffffffffffffffffffffffffff1602179055506200008d6000801b336200009560201b60201c565b5050620002a7565b6000620000a983836200019860201b60201c565b6200018d57600180600085815260200190815260200160002060000160008473ffffffffffffffffffffffffffffffffffffffff1673ffffffffffffffffffffffffffffffffffffffff16815260200190815260200160002060006101000a81548160ff021916908315150217905550620001296200020360201b60201c565b73ffffffffffffffffffffffffffffffffffffffff168273ffffffffffffffffffffffffffffffffffffffff16847f2f8788117e7eff1d82e926ec794901d17c78024a50270940304540a733656f0d60405160405180910390a46001905062000192565b600090505b92915050565b60006001600084815260200190815260200160002060000160008373ffffffffffffffffffffffffffffffffffffffff1673ffffffffffffffffffffffffffffffffffffffff16815260200190815260200160002060009054906101000a900460ff16905092915050565b600033905090565b600080fd5b600073ffffffffffffffffffffffffffffffffffffffff82169050919050565b60006200023d8262000210565b9050919050565b6200024f8162000230565b81146200025b57600080fd5b50565b6000815190506200026f8162000244565b92915050565b6000602082840312156200028e576200028d6200020b565b5b60006200029e848285016200025e565b91505092915050565b61139c80620002b76000396000f3fe608060405234801561001057600080fd5b50600436106101005760003560e01c806391d1485411610097578063adb610a311610066578063adb610a314610289578063b5674c68146102a7578063d547741f146102c3578063dd467064146102df57610100565b806391d14854146101ed57806391dae5191461021d578063926d7d7f1461024d578063a217fddf1461026b57610100565b80633f4ba83a116100d35780633f4ba83a1461019d5780635c975abb146101a7578063703bafd5146101c55780638456cb59146101e357610100565b806301ffc9a714610105578063248a9ca3146101355780632f2ff15d1461016557806336568abe14610181575b600080fd5b61011f600480360381019061011a9190610d7d565b6102fb565b60405161012c9190610dc5565b60405180910390f35b61014f600480360381019061014a9190610e16565b610375565b60405161015c9190610e52565b60405180910390f35b61017f600480360381019061017a9190610ecb565b610395565b005b61019b60048036038101906101969190610ecb565b6103b7565b005b6101a5610432565b005b6101af61044a565b6040516101bc9190610dc5565b60405180910390f35b6101cd610460565b6040516101da9190610f6a565b60405180910390f35b6101eb610486565b005b61020760048036038101906102029190610ecb565b6104bb565b6040516102149190610dc5565b60405180910390f35b61023760048036038101906102329190610fbb565b610526565b6040516102449190610dc5565b60405180910390f35b610255610546565b6040516102629190610e52565b60405180910390f35b61027361056a565b6040516102809190610e52565b60405180910390f35b610291610571565b60405161029e9190610ff7565b60405180910390f35b6102c160048036038101906102bc9190611012565b610577565b005b6102dd60048036038101906102d89190610ecb565b610763565b005b6102f960048036038101906102f49190610fbb565b610785565b005b60007f7965db0b000000000000000000000000000000000000000000000000000000007bffffffffffffffffffffffffffffffffffffffffffffffffffffffff1916827bffffffffffffffffffffffffffffffffffffffffffffffffffffffff1916148061036e575061036d82610920565b5b9050919050565b600060016000838152602001908152602001600020600101549050919050565b61039e82610375565b6103a78161098a565b6103b1838361099e565b50505050565b6103bf610a8f565b73ffffffffffffffffffffffffffffffffffffffff168173ffffffffffffffffffffffffffffffffffffffff1614610423576040517f6697b23200000000000000000000000000000000000000000000000000000000815260040160405180910390fd5b61042d8282610a97565b505050565b6000801b61043f8161098a565b610447610b8a565b50565b60008060009054906101000a900460ff16905090565b600260009054906101000a900473ffffffffffffffffffffffffffffffffffffffff1681565b7fe2b7fb3b832174769106daebcfd6d1970523240dda11281102db9363b83b0dc46104b08161098a565b6104b8610bec565b50565b60006001600084815260200190815260200160002060000160008373ffffffffffffffffffffffffffffffffffffffff1673ffffffffffffffffffffffffffffffffffffffff16815260200190815260200160002060009054906101000a900460ff16905092915050565b60036020528060005260406000206000915054906101000a900460ff1681565b7fe2b7fb3b832174769106daebcfd6d1970523240dda11281102db9363b83b0dc481565b6000801b81565b60045481565b7fe2b7fb3b832174769106daebcfd6d1970523240dda11281102db9363b83b0dc46105a18161098a565b6003600083815260200190815260200160002060009054906101000a900460ff1615610602576040517f08c379a00000000000000000000000000000000000000000000000000000000081526004016105f9906110c2565b60405180910390fd5b60016003600084815260200190815260200160002060006101000a81548160ff021916908315150217905550600260009054906101000a900473ffffffffffffffffffffffffffffffffffffffff1673ffffffffffffffffffffffffffffffffffffffff1663a9059cbb85856040518363ffffffff1660e01b815260040161068b9291906110f1565b6020604051808303816000875af11580156106aa573d6000803e3d6000fd5b505050506040513d601f19601f820116820180604052508101906106ce9190611146565b61070d576040517f08c379a0000000000000000000000000000000000000000000000000000000008152600401610704906111bf565b60405180910390fd5b8373ffffffffffffffffffffffffffffffffffffffff167f3f2f29fa02cc34566ac167b446be0be9e0254cac18eda93b2dfe6a7a7c8affb984846040516107559291906111df565b60405180910390a250505050565b61076c82610375565b6107758161098a565b61077f8383610a97565b50505050565b61078d610c4e565b600081116107d0576040517f08c379a00000000000000000000000000000000000000000000000000000000081526004016107c790611254565b60405180910390fd5b600260009054906101000a900473ffffffffffffffffffffffffffffffffffffffff1673ffffffffffffffffffffffffffffffffffffffff166323b872dd3330846040518463ffffffff1660e01b815260040161082f93929190611274565b6020604051808303816000875af115801561084e573d6000803e3d6000fd5b505050506040513d601f19601f820116820180604052508101906108729190611146565b6108b1576040517f08c379a00000000000000000000000000000000000000000000000000000000081526004016108a8906111bf565b60405180910390fd5b6000600460008154809291906108c6906112da565b9190505590503373ffffffffffffffffffffffffffffffffffffffff167fd4665e3049283582ba6f9eba07a5b3e12dab49e02da99e8927a47af5d134bea583836040516109149291906111df565b60405180910390a25050565b60007f01ffc9a7000000000000000000000000000000000000000000000000000000007bffffffffffffffffffffffffffffffffffffffffffffffffffffffff1916827bffffffffffffffffffffffffffffffffffffffffffffffffffffffff1916149050919050565b61099b81610996610a8f565b610c8f565b50565b60006109aa83836104bb565b610a8457600180600085815260200190815260200160002060000160008473ffffffffffffffffffffffffffffffffffffffff1673ffffffffffffffffffffffffffffffffffffffff16815260200190815260200160002060006101000a81548160ff021916908315150217905550610a21610a8f565b73ffffffffffffffffffffffffffffffffffffffff168273ffffffffffffffffffffffffffffffffffffffff16847f2f8788117e7eff1d82e926ec794901d17c78024a50270940304540a733656f0d60405160405180910390a460019050610a89565b600090505b92915050565b600033905090565b6000610aa383836104bb565b15610b7f5760006001600085815260200190815260200160002060000160008473ffffffffffffffffffffffffffffffffffffffff1673ffffffffffffffffffffffffffffffffffffffff16815260200190815260200160002060006101000a81548160ff021916908315150217905550610b1c610a8f565b73ffffffffffffffffffffffffffffffffffffffff168273ffffffffffffffffffffffffffffffffffffffff16847ff6391f5c32d9c69d2a47ea670b442974b53935d1edc7fd64eb21e047a839171b60405160405180910390a460019050610b84565b600090505b92915050565b610b92610ce0565b60008060006101000a81548160ff0219169083151502179055507f5db9ee0a495bf2e6ff9c91a7834c1ba4fdd244a5e8aa4e537bd38aeae4b073aa610bd5610a8f565b604051610be29190611322565b60405180910390a1565b610bf4610c4e565b60016000806101000a81548160ff0219169083151502179055507f62e78cea01bee320cd4e420270b5ea74000d11b0c9f74754ebdbfc544b05a258610c37610a8f565b604051610c449190611322565b60405180910390a1565b610c5661044a565b15610c8d576040517fd93c066500000000000000000000000000000000000000000000000000000000815260040160405180910390fd5b565b610c9982826104bb565b610cdc5780826040517fe2517d3f000000000000000000000000000000000000000000000000000000008152600401610cd392919061133d565b60405180910390fd5b5050565b610ce861044a565b610d1e576040517f8dfc202b00000000000000000000000000000000000000000000000000000000815260040160405180910390fd5b565b600080fd5b60007fffffffff0000000000000000000000000000000000000000000000000000000082169050919050565b610d5a81610d25565b8114610d6557600080fd5b50565b600081359050610d7781610d51565b92915050565b600060208284031215610d9357610d92610d20565b5b6000610da184828501610d68565b91505092915050565b60008115159050919050565b610dbf81610daa565b82525050565b6000602082019050610dda6000830184610db6565b92915050565b6000819050919050565b610df381610de0565b8114610dfe57600080fd5b50565b600081359050610e1081610dea565b92915050565b600060208284031215610e2c57610e2b610d20565b5b6000610e3a84828501610e01565b91505092915050565b610e4c81610de0565b82525050565b6000602082019050610e676000830184610e43565b92915050565b600073ffffffffffffffffffffffffffffffffffffffff82169050919050565b6000610e9882610e6d565b9050919050565b610ea881610e8d565b8114610eb357600080fd5b50565b600081359050610ec581610e9f565b92915050565b60008060408385031215610ee257610ee1610d20565b5b6000610ef085828601610e01565b9250506020610f0185828601610eb6565b9150509250929050565b6000819050919050565b6000610f30610f2b610f2684610e6d565b610f0b565b610e6d565b9050919050565b6000610f4282610f15565b9050919050565b6000610f5482610f37565b9050919050565b610f6481610f49565b82525050565b6000602082019050610f7f6000830184610f5b565b92915050565b6000819050919050565b610f9881610f85565b8114610fa357600080fd5b50565b600081359050610fb581610f8f565b92915050565b600060208284031215610fd157610fd0610d20565b5b6000610fdf84828501610fa6565b91505092915050565b610ff181610f85565b82525050565b600060208201905061100c6000830184610fe8565b92915050565b60008060006060848603121561102b5761102a610d20565b5b600061103986828701610eb6565b935050602061104a86828701610fa6565b925050604061105b86828701610fa6565b9150509250925092565b600082825260208201905092915050565b7f4e6f6e636520616c72656164792070726f636573736564000000000000000000600082015250565b60006110ac601783611065565b91506110b782611076565b602082019050919050565b600060208201905081810360008301526110db8161109f565b9050919050565b6110eb81610e8d565b82525050565b600060408201905061110660008301856110e2565b6111136020830184610fe8565b9392505050565b61112381610daa565b811461112e57600080fd5b50565b6000815190506111408161111a565b92915050565b60006020828403121561115c5761115b610d20565b5b600061116a84828501611131565b91505092915050565b7f5472616e73666572206661696c65640000000000000000000000000000000000600082015250565b60006111a9600f83611065565b91506111b482611173565b602082019050919050565b600060208201905081810360008301526111d88161119c565b9050919050565b60006040820190506111f46000830185610fe8565b6112016020830184610fe8565b9392505050565b7f416d6f756e74206d7573742062652067726561746572207468616e2030000000600082015250565b600061123e601d83611065565b915061124982611208565b602082019050919050565b6000602082019050818103600083015261126d81611231565b9050919050565b600060608201905061128960008301866110e2565b61129660208301856110e2565b6112a36040830184610fe8565b949350505050565b7f4e487b7100000000000000000000000000000000000000000000000000000000600052601160045260246000fd5b60006112e582610f85565b91507fffffffffffffffffffffffffffffffffffffffffffffffffffffffffffffffff8203611317576113166112ab565b5b600182019050919050565b600060208201905061133760008301846110e2565b92915050565b600060408201905061135260008301856110e2565b61135f6020830184610e43565b939250505056fea2646970667358221220d1fe6b732e801dee5c252ecbc3d83fed77a29f8585e76edf7359efa811db937564736f6c63430008140033",
  "linkReferences": {},
  "deployedLinkReferences": {}
}