{
  "_format": "hh-sol-artifact-1",
  "contractName": "BridgeLock",
  "sourceName": "contracts/BridgeLock.sol",
  "abi": [
    {
      "inputs": [
        {
          "internalType": "address",
          "name": "_vaultToken",
          "type": "address"
        }
      ],
      "stateMutability": "nonpayable",
      "type": "constructor"
    },
    {
      "inputs": [],
      "name": "AccessControlBadConfirmation",
      "type": "error"
    },
    {
      "inputs": [
        {
          "internalType": "address",
          "name": "account",
          "type": "address"
        },
        {
          "internalType": "bytes32",
          "name": "neededRole",
          "type": "bytes32"
        }
      ],
      "name": "AccessControlUnauthorizedAccount",
      "type": "error"
    },
    {
      "inputs": [],
      "name": "EnforcedPause",
      "type": "error"
    },
    {
      "inputs": [],
      "name": "ExpectedPause",
      "type": "error"
    },
    {
      "anonymous": false,
      "inputs": [
        {
          "indexed": true,
          "internalType": "address",
          "name": "user",
          "type": "address"
        },
        {
          "indexed": false,
          "internalType": "uint256",
          "name": "amount",
          "type": "uint256"
        },
        {
          "indexed": false,
          "internalType": "uint256",
          "name": "nonce",
          "type": "uint256"
        }
      ],
      "name": "Locked",
      "type": "event"
    },
    {
      "anonymous": false,
      "inputs": [
        {
          "indexed": false,
          "internalType": "address",
          "name": "account",
          "type": "address"
        }
      ],
      "name": "Paused",
      "type": "event"
    },
    {
      "anonymous": false,
      "inputs": [
        {
          "indexed": true,
          "internalType": "bytes32",
          "name": "role",
          "type": "bytes32"
        },
        {
          "indexed": true,
          "internalType": "bytes32",
          "name": "previousAdminRole",
          "type": "bytes32"
        },
        {
          "indexed": true,
          "internalType": "bytes32",
          "name": "newAdminRole",
          "type": "bytes32"
        }
      ],
      "name": "RoleAdminChanged",
      "type": "event"
    },
    {
      "anonymous": false,
      "inputs": [
        {
          "indexed": true,
          "internalType": "bytes32",
          "name": "role",
          "type": "bytes32"
        },
        {
          "indexed": true,
          "internalType": "address",
          "name": "account",
          "type": "address"
        },
        {
          "indexed": true,
          "internalType": "address",
          "name": "sender",
          "type": "address"
        }
      ],
      "name": "RoleGranted",
      "type": "event"
    },
    {
      "anonymous": false,
      "inputs": [
        {
          "indexed": true,
          "internalType": "bytes32",
          "name": "role",
          "type": "bytes32"
        },
        {
          "indexed": true,
          "internalType": "address",
          "name": "account",
          "type": "address"
        },
        {
          "indexed": true,
          "internalType": "address",
          "name": "sender",
          "type": "address"
        }
      ],
      "name": "RoleRevoked",
      "type": "event"
    },
    {
      "anonymous": false,
      "inputs": [
        {
          "indexed": true,
          "internalType": "address",
          "name": "user",
          "type": "address"
        },
        {
          "indexed": false,
          "internalType": "uint256",
          "name": "amount",
          "type": "uint256"
        },
        {
          "indexed": false,
          "internalType": "uint256",
          "name": "nonce",
          "type": "uint256"
        }
      ],
      "name": "Unlocked",
      "type": "event"
    },
    {
      "anonymous": false,
      "inputs": [
        {
          "indexed": false,
          "internalType": "address",
          "name": "account",
          "type": "address"
        }
      ],
      "name": "Unpaused",
      "type": "event"
    },
    {
      "inputs": [],
      "name": "DEFAULT_ADMIN_ROLE",
      "outputs": [
        {
          "internalType": "bytes32",
          "name": "",
          "type": "bytes32"
        }
      ],
      "stateMutability": "view",
      "type": "function"
    },
    {
      "inputs": [],
      "name": "RELAYER_ROLE",
      "outputs": [
        {
          "internalType": "bytes32",
          "name": "",
          "type": "bytes32"
        }
      ],
      "stateMutability": "view",
      "type": "function"
    },
    {
      "inputs": [],
      "name": "currentNonce",
      "outputs": [
        {
          "internalType": "uint256",
          "name": "",
          "type": "uint256"
        }
      ],
      "stateMutability": "view",
      "type": "function"
    },
    {
      "inputs": [
        {
          "internalType": "bytes32",
          "name": "role",
          "type": "bytes32"
        }
      ],
      "name": "getRoleAdmin",
      "outputs": [
        {
          "internalType": "bytes32",
          "name": "",
          "type": "bytes32"
        }
      ],
      "stateMutability": "view",
      "type": "function"
    },
    {
      "inputs": [
        {
          "internalType": "bytes32",
          "name": "role",
          "type": "bytes32"
        },
        {
          "internalType": "address",
          "name": "account",
          "type": "address"
        }
      ],
      "name": "grantRole",
      "outputs": [],
      "stateMutability": "nonpayable",
      "type": "function"
    },
    {
      "inputs": [
        {
          "internalType": "bytes32",
          "name": "role",
          "type": "bytes32"
        },
        {
          "internalType": "address",
          "name": "account",
          "type": "address"
        }
      ],
      "name": "hasRole",
      "outputs": [
        {
          "internalType": "bool",
          "name": "",
          "type": "bool"
        }
      ],
      "stateMutability": "view",
      "type": "function"
    },
    {
      "inputs": [
        {
          "internalType": "uint256",
          "name": "amount",
          "type": "uint256"
        }
      ],
      "name": "lock",
      "outputs": [],
      "stateMutability": "nonpayable",
      "type": "function"
    },
    {
      "inputs": [
        {
          "internalType": "uint256",
          "name": "amount",
          "type": "uint256"
        }
      ],
      "name": "lockTokens",
      "outputs": [],
      "stateMutability": "nonpayable",
      "type": "function"
    },
    {
      "inputs": [],
      "name": "pause",
      "outputs": [],
      "stateMutability": "nonpayable",
      "type": "function"
    },
    {
      "inputs": [],
      "name": "paused",
      "outputs": [
        {
          "internalType": "bool",
          "name": "",
          "type": "bool"
        }
      ],
      "stateMutability": "view",
      "type": "function"
    },
    {
      "inputs": [
        {
          "internalType": "uint256",
          "name": "",
          "type": "uint256"
        }
      ],
      "name": "processedNonces",
      "outputs": [
        {
          "internalType": "bool",
          "name": "",
          "type": "bool"
        }
      ],
      "stateMutability": "view",
      "type": "function"
    },
    {
      "inputs": [
        {
          "internalType": "bytes32",
          "name": "role",
          "type": "bytes32"
        },
        {
          "internalType": "address",
          "name": "callerConfirmation",
          "type": "address"
        }
      ],
      "name": "renounceRole",
      "outputs": [],
      "stateMutability": "nonpayable",
      "type": "function"
    },
    {
      "inputs": [
        {
          "internalType": "bytes32",
          "name": "role",
          "type": "bytes32"
        },
        {
          "internalType": "address",
          "name": "account",
          "type": "address"
        }
      ],
      "name": "revokeRole",
      "outputs": [],
      "stateMutability": "nonpayable",
      "type": "function"
    },
    {
      "inputs": [
        {
          "internalType": "bytes4",
          "name": "interfaceId",
          "type": "bytes4"
        }
      ],
      "name": "supportsInterface",
      "outputs": [
        {
          "internalType": "bool",
          "name": "",
          "type": "bool"
        }
      ],
      "stateMutability": "view",
      "type": "function"
    },
    {
      "inputs": [
        {
          "internalType": "address",
          "name": "user",
          "type": "address"
        },
        {
          "internalType": "uint256",
          "name": "amount",
          "type": "uint256"
        },
        {
          "internalType": "uint256",
          "name": "nonce",
          "type": "uint256"
        }
      ],
      "name": "unlock",
      "outputs": [],
      "stateMutability": "nonpayable",
      "type": "function"
    },
    {
      "inputs": [],
      "name": "unpause",
      "outputs": [],
      "stateMutability": "nonpayable",
      "type": "function"
    },
    {
      "inputs": [],
      "name": "vaultToken",
      "outputs": [
        {
          "internalType": "contract IERC20",
          "name": "",
          "type": "address"
        }
      ],
      "stateMutability": "view",
      "type": "function"
    }
  ],
  "bytecode": "0x60806040523480156200001157600080fd5b50604051620017a1380380620017a1833981810160405281019062000037919062000275565b80600260006101000a81548173ffffffffffffffffffffffffffffffffffffffff021916908373ffffffffffffffffffffffffffffffffffffffff1602179055506200008d6000801b336200009560201b60201c565b5050620002a7565b6000620000a983836200019860201b60201c565b6200018d57600180600085815260200190815260200160002060000160008473ffffffffffffffffffffffffffffffffffffffff1673ffffffffffffffffffffffffffffffffffffffff16815260200190815260200160002060006101000a81548160ff021916908315150217905550620001296200020360201b60201c565b73ffffffffffffffffffffffffffffffffffffffff168273ffffffffffffffffffffffffffffffffffffffff16847f2f8788117e7eff1d82e926ec794901d17c78024a50270940304540a733656f0d60405160405180910390a46001905062000192565b600090505b92915050565b60006001600084815260200190815260200160002060000160008373ffffffffffffffffffffffffffffffffffffffff1673ffffffffffffffffffffffffffffffffffffffff16815260200190815260200160002060009054906101000a900460ff16905092915050565b600033905090565b600080fd5b600073ffffffffffffffffffffffffffffffffffffffff82169050919050565b60006200023d8262000210565b9050919050565b6200024f8162000230565b81146200025b57600080fd5b50565b6000815190506200026f8162000244565b92915050565b6000602082840312156200028e576200028d6200020b565b5b60006200029e848285016200025e565b91505092915050565b6114ea80620002b76000396000f3fe608060405234801561001057600080fd5b506004361061010b5760003560e01c80638456cb59116100a2578063a217fddf11610071578063a217fddf14610292578063adb610a3146102b0578063b5674c68146102ce578063d547741f146102ea578063dd467064146103065761010b565b80638456cb591461020a57806391d148541461021457806391dae51914610244578063926d7d7f146102745761010b565b80633f4ba83a116100de5780633f4ba83a146101a85780635c975abb146101b25780636e27d889146101d0578063703bafd5146101ec5761010b565b806301ffc9a714610110578063248a9ca3146101405780632f2ff15d1461017057806336568abe1461018c575b600080fd5b61012a60048036038101906101259190610e25565b610322565b6040516101379190610e6d565b60405180910390f35b61015a60048036038101906101559190610ebe565b61039c565b6040516101679190610efa565b60405180910390f35b61018a60048036038101906101859190610f73565b6103bc565b005b6101a660048036038101906101a19190610f73565b6103de565b005b6101b0610459565b005b6101ba610471565b6040516101c79190610e6d565b60405180910390f35b6101ea60048036038101906101e59190610fe9565b610487565b005b6101f4610622565b6040516102019190611075565b60405180910390f35b610212610648565b005b61022e60048036038101906102299190610f73565b61067d565b60405161023b9190610e6d565b60405180910390f35b61025e60048036038101906102599190610fe9565b6106e8565b60405161026b9190610e6d565b60405180910390f35b61027c610708565b6040516102899190610efa565b60405180910390f35b61029a61072c565b6040516102a79190610efa565b60405180910390f35b6102b8610733565b6040516102c5919061109f565b60405180910390f35b6102e860048036038101906102e391906110ba565b610739565b005b61030460048036038101906102ff9190610f73565b610925565b005b610320600480360381019061031b9190610fe9565b610947565b005b60007f7965db0b000000000000000000000000000000000000000000000000000000007bffffffffffffffffffffffffffffffffffffffffffffffffffffffff1916827bffffffffffffffffffffffffffffffffffffffffffffffffffffffff191614806103955750610394826109c8565b5b9050919050565b600060016000838152602001908152602001600020600101549050919050565b6103c58261039c565b6103ce81610a32565b6103d88383610a46565b50505050565b6103e6610b37565b73ffffffffffffffffffffffffffffffffffffffff168173ffffffffffffffffffffffffffffffffffffffff161461044a576040517f6697b23200000000000000000000000000000000000000000000000000000000815260040160405180910390fd5b6104548282610b3f565b505050565b6000801b61046681610a32565b61046e610c32565b50565b60008060009054906101000a900460ff16905090565b61048f610c94565b600081116104d2576040517f08c379a00000000000000000000000000000000000000000000000000000000081526004016104c99061116a565b60405180910390fd5b600260009054906101000a900473ffffffffffffffffffffffffffffffffffffffff1673ffffffffffffffffffffffffffffffffffffffff166323b872dd3330846040518463ffffffff1660e01b815260040161053193929190611199565b6020604051808303816000875af1158015610550573d6000803e3d6000fd5b505050506040513d601f19601f8201168201806040525081019061057491906111fc565b6105b3576040517f08c379a00000000000000000000000000000000000000000000000000000000081526004016105aa90611275565b60405180910390fd5b6000600460008154809291906105c8906112c4565b9190505590503373ffffffffffffffffffffffffffffffffffffffff167fd4665e3049283582ba6f9eba07a5b3e12dab49e02da99e8927a47af5d134bea5838360405161061692919061130c565b60405180910390a25050565b600260009054906101000a900473ffffffffffffffffffffffffffffffffffffffff1681565b7fe2b7fb3b832174769106daebcfd6d1970523240dda11281102db9363b83b0dc461067281610a32565b61067a610cd5565b50565b60006001600084815260200190815260200160002060000160008373ffffffffffffffffffffffffffffffffffffffff1673ffffffffffffffffffffffffffffffffffffffff16815260200190815260200160002060009054906101000a900460ff16905092915050565b60036020528060005260406000206000915054906101000a900460ff1681565b7fe2b7fb3b832174769106daebcfd6d1970523240dda11281102db9363b83b0dc481565b6000801b81565b60045481565b7fe2b7fb3b832174769106daebcfd6d1970523240dda11281102db9363b83b0dc461076381610a32565b6003600083815260200190815260200160002060009054906101000a900460ff16156107c4576040517f08c379a00000000000000000000000000000000000000000000000000000000081526004016107bb90611381565b60405180910390fd5b60016003600084815260200190815260200160002060006101000a81548160ff021916908315150217905550600260009054906101000a900473ffffffffffffffffffffffffffffffffffffffff1673ffffffffffffffffffffffffffffffffffffffff1663a9059cbb85856040518363ffffffff1660e01b815260040161084d9291906113a1565b6020604051808303816000875af115801561086c573d6000803e3d6000fd5b505050506040513d601f19601f8201168201806040525081019061089091906111fc565b6108cf576040517f08c379a00000000000000000000000000000000000000000000000000000000081526004016108c690611275565b60405180910390fd5b8373ffffffffffffffffffffffffffffffffffffffff167f3f2f29fa02cc34566ac167b446be0be9e0254cac18eda93b2dfe6a7a7c8affb9848460405161091792919061130c565b60405180910390a250505050565b61092e8261039c565b61093781610a32565b6109418383610b3f565b50505050565b61094f610c94565b60008111610992576040517f08c379a00000000000000000000000000000000000000000000000000000000081526004016109899061116a565b60405180910390fd5b60004233836040516020016109a993929190611433565b6040516020818303038152906040528051906020012060001c90505050565b60007f01ffc9a7000000000000000000000000000000000000000000000000000000007bffffffffffffffffffffffffffffffffffffffffffffffffffffffff1916827bffffffffffffffffffffffffffffffffffffffffffffffffffffffff1916149050919050565b610a4381610a3e610b37565b610d37565b50565b6000610a52838361067d565b610b2c57600180600085815260200190815260200160002060000160008473ffffffffffffffffffffffffffffffffffffffff1673ffffffffffffffffffffffffffffffffffffffff16815260200190815260200160002060006101000a81548160ff021916908315150217905550610ac9610b37565b73ffffffffffffffffffffffffffffffffffffffff168273ffffffffffffffffffffffffffffffffffffffff16847f2f8788117e7eff1d82e926ec794901d17c78024a50270940304540a733656f0d60405160405180910390a460019050610b31565b600090505b92915050565b600033905090565b6000610b4b838361067d565b15610c275760006001600085815260200190815260200160002060000160008473ffffffffffffffffffffffffffffffffffffffff1673ffffffffffffffffffffffffffffffffffffffff16815260200190815260200160002060006101000a81548160ff021916908315150217905550610bc4610b37565b73ffffffffffffffffffffffffffffffffffffffff168273ffffffffffffffffffffffffffffffffffffffff16847ff6391f5c32d9c69d2a47ea670b442974b53935d1edc7fd64eb21e047a839171b60405160405180910390a460019050610c2c565b600090505b92915050565b610c3a610d88565b60008060006101000a81548160ff0219169083151502179055507f5db9ee0a495bf2e6ff9c91a7834c1ba4fdd244a5e8aa4e537bd38aeae4b073aa610c7d610b37565b604051610c8a9190611470565b60405180910390a1565b610c9c610471565b15610cd3576040517fd93c066500000000000000000000000000000000000000000000000000000000815260040160405180910390fd5b565b610cdd610c94565b60016000806101000a81548160ff0219169083151502179055507f62e78cea01bee320cd4e420270b5ea74000d11b0c9f74754ebdbfc544b05a258610d20610b37565b604051610d2d9190611470565b60405180910390a1565b610d41828261067d565b610d845780826040517fe2517d3f000000000000000000000000000000000000000000000000000000008152600401610d7b92919061148b565b60405180910390fd5b5050565b610d90610471565b610dc6576040517f8dfc202b00000000000000000000000000000000000000000000000000000000815260040160405180910390fd5b565b600080fd5b60007fffffffff0000000000000000000000000000000000000000000000000000000082169050919050565b610e0281610dcd565b8114610e0d57600080fd5b50565b600081359050610e1f81610df9565b92915050565b600060208284031215610e3b57610e3a610dc8565b5b6000610e4984828501610e10565b91505092915050565b60008115159050919050565b610e6781610e52565b82525050565b6000602082019050610e826000830184610e5e565b92915050565b6000819050919050565b610e9b81610e88565b8114610ea657600080fd5b50565b600081359050610eb881610e92565b92915050565b600060208284031215610ed457610ed3610dc8565b5b6000610ee284828501610ea9565b91505092915050565b610ef481610e88565b82525050565b6000602082019050610f0f6000830184610eeb565b92915050565b600073ffffffffffffffffffffffffffffffffffffffff82169050919050565b6000610f4082610f15565b9050919050565b610f5081610f35565b8114610f5b57600080fd5b50565b600081359050610f6d81610f47565b92915050565b60008060408385031215610f8a57610f89610dc8565b5b6000610f9885828601610ea9565b9250506020610fa985828601610f5e565b9150509250929050565b6000819050919050565b610fc681610fb3565b8114610fd157600080fd5b50565b600081359050610fe381610fbd565b92915050565b600060208284031215610fff57610ffe610dc8565b5b600061100d84828501610fd4565b91505092915050565b6000819050919050565b600061103b61103661103184610f15565b611016565b610f15565b9050919050565b600061104d82611020565b9050919050565b600061105f82611042565b9050919050565b61106f81611054565b82525050565b600060208201905061108a6000830184611066565b92915050565b61109981610fb3565b82525050565b60006020820190506110b46000830184611090565b92915050565b6000806000606084860312156110d3576110d2610dc8565b5b60006110e186828701610f5e565b93505060206110f286828701610fd4565b925050604061110386828701610fd4565b9150509250925092565b600082825260208201905092915050565b7f416d6f756e74206d7573742062652067726561746572207468616e2030000000600082015250565b6000611154601d8361110d565b915061115f8261111e565b602082019050919050565b6000602082019050818103600083015261118381611147565b9050919050565b61119381610f35565b82525050565b60006060820190506111ae600083018661118a565b6111bb602083018561118a565b6111c86040830184611090565b949350505050565b6111d981610e52565b81146111e457600080fd5b50565b6000815190506111f6816111d0565b92915050565b60006020828403121561121257611211610dc8565b5b6000611220848285016111e7565b91505092915050565b7f5472616e73666572206661696c65640000000000000000000000000000000000600082015250565b600061125f600f8361110d565b915061126a82611229565b602082019050919050565b6000602082019050818103600083015261128e81611252565b9050919050565b7f4e487b7100000000000000000000000000000000000000000000000000000000600052601160045260246000fd5b60006112cf82610fb3565b91507fffffffffffffffffffffffffffffffffffffffffffffffffffffffffffffffff820361130157611300611295565b5b600182019050919050565b60006040820190506113216000830185611090565b61132e6020830184611090565b9392505050565b7f4e6f6e636520616c72656164792070726f636573736564000000000000000000600082015250565b600061136b60178361110d565b915061137682611335565b602082019050919050565b6000602082019050818103600083015261139a8161135e565b9050919050565b60006040820190506113b6600083018561118a565b6113c36020830184611090565b9392505050565b6000819050919050565b6113e56113e082610fb3565b6113ca565b82525050565b60008160601b9050919050565b6000611403826113eb565b9050919050565b6000611415826113f8565b9050919050565b61142d61142882610f35565b61140a565b82525050565b600061143f82866113d4565b60208201915061144f828561141c565b60148201915061145f82846113d4565b602082019150819050949350505050565b6000602082019050611485600083018461118a565b92915050565b60006040820190506114a0600083018561118a565b6114ad6020830184610eeb565b939250505056fea26469706673582212203d7b4f5006b15bf3bb725469e9851fa337d9d9f72c228f19a58c70474b63157a64736f6c63430008140033",
  "linkReferences": {},
  "deployedLinkReferences": {}
}